:020000040800F2
:10000000280A0020490100080319000833140008D9
:1000100001190008050200081D1D0008000000006D
:10002000000000000000000000000000411A00086D
:10003000070200080000000005190008ED00000894
:100040006301000863010008630100086301000800
:1000500063010008630100086301000863010008F0
:1000600063010008630100086301000863010008E0
:1000700063010008630100086301000863010008D0
:1000800063010008630100086301000863010008C0
:1000900063010008630100086301000863010008B0
:1000A00063010008A11A0008630100086301000849
:1000B0006301000863010008630100086301000890
:1000C0006301000863010008630100086301000880
:1000D0006301000863010008630100086301000870
:1000E00063010008630100086301000872B62DE98E
:1000F000F00F0F480168C1F800D001B501F0D6FF3C
:10010000BDE801400168D1F800D0BDE8F00F62B64B
:10011000704707480268D2F800D0BDE8F00F0FBC66
:100120005DF804CB01B05DF804EB01B062B6704736
:1001300004000020DFF80CD000F052F8004800471F
:10014000091F0008280A0020064880470648004783
:10015000FEE7FEE7FEE7FEE7FEE7FEE7FEE7FEE777
:10016000FEE7FEE79F1A00083501000840EA010398
:100170009B0703D009E008C9121F08C0042AFAD25D
:1001800003E011F8013B00F8013B521EF9D2704721
:10019000D2B201E000F8012B491EFBD270470022C9
:1001A000F6E710B513460A4604461946FFF7F0FF76
:1001B000204610BD30B50B46014600202022012408
:1001C00009E021FA02F59D4205D303FA02F5491B25
:1001D00004FA02F52844151EA2F10102F1DC30BD3B
:1001E000064C074D06E0E06840F0010394E8070084
:1001F00098471034AC42F6D3FFF7A0FF082100085F
:1002000028210008FEE7704770B5044600F00CF99D
:100210000546601C02D004480078044400F004F94C
:10022000401BA042FAD370BD140000202DE9F84F06
:10023000DFF8B891002409F1040A0AF1040B2346FF
:100240000F270BF1040EC9E00125A5402A40AA4260
:100250007DD1674ED1F804C0ACEB0608B44532D06E
:1002600014DCBCF1030F3AD009DCBCF1000F2AD03A
:10027000BCF1010F1CD0BCF1020F31D11DE0BCF16B
:10028000110F17D0BCF1120F2AD119E0B8F5881F51
:1002900019D006DCB8F5803F15D0B8F5801F1FD106
:1002A00011E0B8F5001F0ED0B8F5041F18D10AE010
:1002B000CB6815E0CB681B1D12E0CB6808330FE05C
:1002C000CB680C330CE08B682BB1012B4FF008038B
:1002D00003D0456104E0042302E0056100E000234F
:1002E000FF2A01D8064601E000F104064FEA840522
:1002F00001D9A5F12005D6F8008007FA05FC28EA07
:100300000C0803FA05F548EA0508C6F800804D68B0
:10031000ED0062D5374DAE6946F00106AE61AD69BC
:1003200024F0030605F001050095334D06EB050C9E
:10033000DCF80850A607360F07FA06F825EA080584
:10034000DFF8B880404503D14FF0000817E044E0E3
:10035000DFF8AC80404502D14FF001080FE0DFF834
:10036000A480404502D14FF0020808E0DFF89880F1
:10037000404502D14FF0030801E04FF0040808FAAD
:1003800006F848EA0508CCF808804D68D9F80060FE
:10039000ED034D4601D5164300E096432E604D68AF
:1003A000DAF80060AD03554601D5164300E09643E8
:1003B0002E604D68DBF80060ED025D4601D5164306
:1003C00000E096432E604D68DEF80060AD02754691
:1003D00001D5164300E096432E60641C0D682A4642
:1003E000E5407FF431AFBDE8F88F00000004014024
:1003F0000000111000100240000001400008014000
:10040000000C01400010014000140140C26821EAC4
:1004100002030A4043EA0241016170470AB10161E7
:1004200070470904FBE7000001488068704700003E
:1004300014000020006C704790F83D0070470000E9
:1004400070B5040025D094F83D00002520B984F84B
:100450003C50204600F070FA242084F83D002068CB
:10046000016821F0010101602068016841F4004148
:1004700001602068016821F40041016000F0F2FB96
:100480004D4A6168914201D84C4900E04C4988428C
:1004900001D2012070BD4B492368B0FBF1F15E68C9
:1004A00026F03F060E435E606368934206D94FF420
:1004B000967359434FF47A73B1FBF3F12368491CE7
:1004C0001E6A26F03F06314319626168914210D8D6
:1004D0004900401EB0FBF1F2521CC2F30B02042A89
:1004E00001D2042022E0B0FBF1F0401CC0F30B006D
:1004F0001CE0A268F2B301EBC10303EB0116431E3B
:10050000B3FBF6F35B1C43F480431B0549D092B365
:1005100001EBC10202EB0111401EB0FBF1F0401CE7
:10052000C0F30B0040F4804040F400402168CA69E9
:100530004CF6FF739A431043C861D4E90710014396
:100540002068026822F0C00211430160D4E903016F
:1005500001432068826848F2FF339A431143816067
:10056000D4E9050108432168CA6822F0FF0210435C
:10057000C86001E00EE016E02068016841F001016A
:1005800001602564202084F83D00256384F83E50F6
:10059000002070BD01EB4106431EB3FBF6F35B1C6C
:1005A000B3E70120C2E701EB4101401EB0FBF1F0CF
:1005B000401CC0F30B00B7E7A086010080841E003A
:1005C00000093D0040420F002DE9F84F0025DDF8FD
:1005D0002890984617468A4604460095FFF724FF60
:1005E000064694F83D0020287AD119230122834938
:1005F0002046009601F04AF80028F5D194F83C0016
:1006000001286DD0012084F83C0020680168C907EA
:1006100003D1016841F0010101602068016821F403
:1006200000610160222084F83D00102084F83E0023
:1006300025646762A4F82A80608D20857048E06296
:1006400033464A465146204600F00CFF00287DD133
:10065000208DDFF8B081202768B1012814D002284E
:10066000206801681ED041F4806101602068416902
:1006700080690090B5E02068416981690091016856
:1006800041F400710160ACE02068016821F48061F0
:10069000016072B62068416981690091016841F486
:1006A00000710AE041F40061016072B6206841699E
:1006B00081690091016821F48061016062B690E077
:1006C000032868D801280CD002284B464FF00002BE
:1006D0004146204600960FD000F0D8FFB0BB10E096
:1006E0008AE032464946204601F04FF870BB206848
:1006F0000069616A08706BE000F0C8FF30BB72B639
:1007000034E02068016821F48061016072B62068DD
:100710000069616A0870606A401C6062208D401E3A
:100720002085608D401E6085374846F2A81100681C
:10073000B0FBF1F0C0EBC00000EB80000090401E69
:10074000009008D020684069C04300E029E04007DD
:100750000CD50098F3E744F8305F6773A573206900
:1007600040F02000206162B625731AE0206801681D
:1007700041F40071016020680069616A0870606A74
:10078000401C6062218D491E2185618D491E618555
:1007900062B621681AE032464946204600F0F5FF6D
:1007A00010B10120BDE8F88F20680069616A087007
:1007B000606A401C6062218D491E2185618D491E41
:1007C000618521684A69D24352070AD409690170D8
:1007D000606A401C6062208D401E2085608D401E36
:1007E0006085208D00287FF46BAF84F83D7084F81D
:1007F0003E5084F83C50D5E70220D3E702001000B9
:100800000000FFFF04000100200000202DE9F84F48
:100810001F4690468A460446DDF82890FFF704FEFE
:10082000054694F83D0020287FD119230122404934
:100830002046009500F02AFF002876D194F83C006D
:10084000012872D0012084F83C0020680168C907A3
:1008500003D1016841F0010101602068016821F4C1
:1008600000610160212084F83D00102084F83E00E2
:1008700000262664C4F824806785608D20852D4875
:10088000E0622B464A465146204600F061FE90B990
:10089000206841698069009036E02A464946204632
:1008A00000F0A6FF50B1206C042804D12068016834
:1008B00041F4007101600120BDE8F88F606A216891
:1008C00000780861606A401C6062618D491E618524
:1008D000218D491E89B2218522685369DB435B075C
:1008E0000BD451B100781061606A401C6062608D69
:1008F000401E6085208D401E20852A4649462046A0
:1009000000F09EFE0028CED1208D0028C5D154F8DD
:100910003D0B016841F400710160202004F81E09BC
:10092000E67766770020C7E7FFE70220C4E700000C
:10093000020010000000FFFF10B586B000210091FA
:1009400001910291039100680F4988421AD10F4C1E
:10095000A06940F00800A061A069694600F00800A5
:100960000490C020009012200190032003900848BA
:10097000FFF75CFCE06940F40010E061E06900F41E
:100980000010049006B010BD00540040001002405A
:10099000000C014002488168027811448160704770
:1009A00014000020074810B5016841F010010160F3
:1009B000032000F08FF8012000F006F800F03EF868
:1009C000002010BD0020024000B5014687B0002283
:1009D000192000F05FF8192000F04EF813488169E3
:1009E00041F400618161806905A900F4006006900E
:1009F000684600F017F900F045F90D490D4AB0FBC3
:100A0000F1F10D48491E0260416040F2E7320021D9
:100A1000C0E90321816000F00DFB10B1012007B097
:100A200000BD054800F034FBF9E70000001002406B
:100A300040420F00002C0140DC0500200C4808B5A6
:100A4000816941F001018161816901F00101009139
:100A5000C16941F08051C161C06900F080500090CF
:100A60000448416821F0E06141F00071416008BD37
:100A70000010024000000140002809DB00F01F02C6
:100A8000012191404009800000F1E020C0F80011F0
:100A900070470000F0B40E4B1B680C46C3F30223F2
:100AA000C3F10705042D00D90425191D072901D21A
:100AB000002300E0DB1E012606FA05F1491E214055
:100AC00099409E40761E16403143F0BC01F038B983
:100AD0000CED00E0064900F0070208684FF6FF033E
:100AE000184040EA0220034A1043086070470000A3
:100AF0000CED00E00000FA052DE9F0470F46050077
:100B000061D0434E306800F00700B84209D2306827
:100B100020F0070038433060306800F00700B8422A
:100B200051D128683B4C810712D5400703D5606836
:100B300040F4E06060602878000703D5606840F406
:100B4000605060606068A96820F0F0000843606051
:100B50002878C00728D06868012810D021680228AA
:100B600010D0890700292EDA616821F003010143C2
:100B70006160FFF759FC804641F288390DE0216839
:100B80008903EFE78901EDE7FFF74EFCA0EB0801D1
:100B9000494502D90320BDE8F0876068696800F024
:100BA0000C00B0EB810FEFD1306800F00700B842C5
:100BB0000BD9306820F0070038433060306800F00F
:100BC0000700B84201D00120E5E72878400705D5A5
:100BD0006068E96820F4E0600843606028780007F6
:100BE00006D56068296920F4605040EAC100606061
:100BF00000F058F86168084AC1F30311515CC8401D
:100C00000649086006480068FFF7DEFE0020C2E7DC
:100C10000020024000100240F020000820000020C8
:100C2000180000200F2202600C4A536803F00303EF
:100C30004360536803F0F0038360536803F4E06398
:100C4000C36052684FF4E06303EAD20202610448D1
:100C5000006800F0070008607047000000100240C4
:100C6000002002400448054900684968044AC1F36D
:100C70000221515CC8407047200000200010024053
:100C8000002100080448054900684968044AC1F386
:100C9000C221515CC8407047200000200010024073
:100CA0000021000812A185B00FC98DE80F0014A023
:100CB000144A006804905168134801F00C03042B97
:100CC00010D0082B0ED1C1F38343C9031DF80300D4
:100CD0000AD5516804AAC1F34041515C0A4A504305
:100CE000B0FBF1F005B0704708494843FAE700004F
:100CF00002030405060708090A0B0C0D0E0F10105D
:100D0000010200000010024000127A0000093D00BC
:100D10002DE9F84F040070D02078C04DC00749D0AD
:100D20006868C0F38100012807D06868C0F38100BB
:100D3000022809D16868C00306D52868800339D520
:100D400060680028E7D035E06068B0F5803F0BD0E0
:100D500010B1B0F5A02F11D0286820F480302860A1
:100D6000286820F4802002E0286840F48030286061
:100D7000606890B1FFF758FB06460AE0286840F427
:100D800080202860F0E700BFFFF74EFB801B64283F
:100D900073D828688003F7D50CE0FFF745FB0646BB
:100DA00005E000BFFFF740FB801B6428F0D82868EF
:100DB0008003F7D420789A4E80074FF001094FF056
:100DC000000839D5686810F00C0F07D06868C0F3C8
:100DD0008100022809D16868C00306D4286880070A
:100DE00014D52069012808D110E02069B0B1C6F8F7
:100DF0000090FFF719FB074605E00AE1FFF714FB37
:100E0000C01B0228C4D828688007F7D52868616904
:100E100020F0F80040EAC10028600DE0C6F800802C
:100E2000FFF702FB074604E0FFF7FEFAC01B0228AB
:100E300023D828688007F7D4207800072CD5794874
:100E4000A169D9B1C0F80090FFF7EEFA074604E0B7
:100E5000FFF7EAFAC01B02280FD8686A8007F7D5A7
:100E600071484FF4FA510068B0FBF1F0009000BFF8
:100E70000098411E0091FAD20EE080E0C0F8008098
:100E8000FFF7D2FA074604E0FFF7CEFAC01B0228AC
:100E900075D8686A8007F7D42078400760D5E8697C
:100EA0000027C00008D4E86940F08050E861E86994
:100EB000012700F0805000905C480168C90513D4F8
:100EC0000168834641F480710160FFF7ADFA824604
:100ED00006E000BFFFF7A8FAA0EB0A0064284ED88E
:100EE000DBF80000C005F5D5E06801280AD008B19C
:100EF000052813D0286A20F001002862286A20F013
:100F0000040002E0286A40F001002862E06841F233
:100F1000883B98B1FFF788FA82460BE0286A40F0D8
:100F200004002862EEE700BFFFF77EFAA0EB0A019B
:100F300059455AD8286A8007F6D50CE0FFF774FAAD
:100F4000824605E0FFF770FAA0EB0A0159454CD83C
:100F5000286A8007F6D41FB1E86920F08050E86164
:100F6000E06988B36968C1F38101022944D002288D
:100F7000C6F8608004D0FFF757FA044638E034E042
:100F8000FFF752FA074604E0FFF74EFAC01B0228AB
:100F90002BD828688001F7D4206AB0F5803F05D1AE
:100FA0006868A16820F4003008436860D4E908014B
:100FB0000843696821F4741108436860C6F86090BA
:100FC000FFF732FA044606E025E000BFFFF72CFAEF
:100FD000001B022809D828688001F7D51BE000BF54
:100FE000FFF722FA001B022802D90320BDE8F88F80
:100FF00028688001F4D40EE00128F7D06868226ADE
:1010000000F48031914204D1616A00F4701088428A
:1010100001D00120EAE70020E8E7000000100240CC
:101020000000424280044242200000200070004044
:101030007047704710B5040003D094F83D0010B11C
:1010400007E0012010BD002084F83C00204600F09D
:101050001EF8022084F83D00211D206800F026FDC6
:10106000012084F8460084F83E0084F83F0084F8AC
:10107000400084F8410084F8420084F8430084F87A
:10108000440084F8450084F83D00002010BD7047FE
:1010900090F83D10012901D001207047022180F80D
:1010A0003D100168CA6842F00102CA6000680B493D
:1010B000884208D0B0F1804F05D00949884202D05B
:1010C0000849884204D1816801F00701062903D04C
:1010D000016841F00101016000207047002C0140CF
:1010E0000004004000080040704770B504460068E6
:1010F00001694FF00005C943890715D4C168C94388
:10110000890711D4E91E01610120207720688069D8
:101110008007204602D0FFF7E7FF04E000F098F8D0
:10112000204600F096F8257720680169C9434907F1
:1011300017D4C168C943490713D46FF00401016192
:10114000022020772068806910F4407F204602D07A
:10115000FFF7CAFF04E000F07BF8204600F079F8C2
:10116000257720680169C943090716D4C168C943B6
:10117000090712D46FF0080101610420207720686C
:10118000C0698007204602D0FFF7AEFF04E000F000
:101190005FF8204600F05DF8257720680169C943B3
:1011A000C90617D4C168C943C90613D46FF010012A
:1011B0000161082020772068C06910F4407F204634
:1011C00002D0FFF791FF04E000F042F8204600F063
:1011D00040F8257720680169C943C90708D1C1686B
:1011E000C943C90704D1891E0161204600F032F8C5
:1011F00020680169C943090609D4C168C9430906C1
:1012000005D46FF0800101612046FFF711FF2068CF
:101210000169C943490609D4C168C943490605D4CF
:101220006FF040010161204600F01EF8206801695E
:10123000C94389060BD4C168C943890607D46FF036
:10124000200101612046BDE87040FFF7F2BE70BD8D
:101250007047704700680349884201D1FFF79ABB85
:1012600070470000002C0140704770B5040004D0A6
:1012700094F83D00002510B106E0012070BD84F80F
:101280003C50204600F022F8242084F83D002068DD
:10129000C16821F40051C160204600F0B1FC206813
:1012A000016921F4904101612068416921F02A011E
:1012B00041612068C16841F40051C160256420206B
:1012C00084F83D0084F83E00002070BD30B585B044
:1012D00000240094019402940394244D036824484C
:1012E00002210322AB421AD1C36943F40033C36124
:1012F000C36903F400330493836943F004038361F7
:1013000080691C4D00F0040004900420CDE9000128
:10131000039269462846FEF789FF08201CE0164D17
:10132000AB4220D1C36943F48023C361C36903F492
:1013300080230493836943F00803836180690392E7
:1013400000F0080004902815CDE900010B4D694616
:101350002846FEF76BFFE814CDE9000469462846ED
:101360000294FEF763FF05B030BD0000004400406A
:10137000001002400008014000480040000C0140FD
:101380002DE9F843044690F83D001F4616460D46E9
:1013900020284CD1C5B1BEB194F83C00012846D0FC
:1013A000012084F83C004FF00008C4F84080212060
:1013B00084F83D00FFF738F8A6848146E684A068EB
:1013C000B0F5805F03D004E00120BDE8F883206918
:1013D00028B12E465FF0000584F83C800EE0002620
:1013E000FAE78021204600F067FCA0B9AEB116F8FC
:1013F000010B21684860E08C401EE084E08C4B4685
:101400004FF0000200970028EBD14FF0400120463A
:1014100000F052FC30B10320D7E735F8020BC0F3DF
:101420000800E6E7202084F83D000020CDE70220F8
:10143000CBE7FEE701684A69D24352050FD46FF447
:1014400080624A61002140F8301F2022427381737C
:10145000026942F00402026101730120704700201A
:10146000704700002DE9F84F0446C06A1E469346B7
:101470000D4621680A6842F480620A60082807D095
:10148000012805D010F5803F02D0206B112804D12F
:101490002068016841F4807101604FF001195B46DA
:1014A000002249462046009600F0F0F84FF40078FC
:1014B00040B120680068C00501D5C4F84080032011
:1014C000BDE8F88F2069DFF884A0B0F5804F0FD019
:1014D0000620216800EAD51747F0F000086133467E
:1014E0005A460AF10601204600F004F958BB03E011
:1014F000E8B240F001001CE02168E8B20861334620
:101500005A465146204600F0F5F8E0B92068416996
:1015100081690091016841F4807101605B4600229D
:1015200049462046009600F0B1F80028C1D147F0A6
:10153000F1002168086133465A465146204600F0C2
:10154000D9F80028BCD00120BAE700000200010051
:10155000F8B50446C06A1E460D461746082807D04F
:10156000012805D010F5803F02D0206B122804D14D
:101570002068016841F480710160134600224FF039
:1015800001112046009600F081F840B12068006803
:10159000C00502D54FF4007020640320F8BD206917
:1015A000B0F5804F0ED00620216800EAD51040F03B
:1015B000F000086133463A460B49204600F09AF89D
:1015C00078B902E005F0FE0000E0E8B221680861A9
:1015D000054933463A46891F204600F08BF800281B
:1015E000DCD00120F8BD0000080001000FB4F8B500
:1015F0004FF47A74DDE91B650A4F07E006A8FEF791
:1016000019FF042802D008A000F08AFB2B46FA1D1F
:10161000314606A80094FEF7D7FF0028EED1F8BCAB
:101620005DF814FBF0040020577269746520627540
:1016300066666572206572726F720A0D00000000A6
:1016400070B516460D4604460DE02046FFF7F2FE43
:1016500008B1012070BD681C05D0FEF7E5FE801BB7
:10166000A84207D835B120684069C0434007ECD490
:10167000002070BD002044F8300F20216173A0735A
:10168000216941F0200121612073E2E72DE9F04753
:101690001E4690460D460446C1F30747DDF82090EC
:1016A00008E0701C06D0FEF7BFFEA0EB0900B042B8
:1016B0000FD876B12068012F18D0806925EA000084
:1016C0000004000C14D000214145EAD00020BDE800
:1016D000F087002044F8300F20216173A073216946
:1016E00041F02001216120730120F0E74069E5E726
:1016F0000121E9E72DE9F0479A4691460E46044656
:1017000000254FF02008C1F3074725E02068406915
:10171000C043400514D42068016841F400710160A1
:1017200021686FF480604861256384F83D8084F807
:101730003E50206C40F00400206484F83C501FE0D0
:10174000B9F1FF3F08D0FEF76FFEA0EB0A01494553
:101750000CD8B9F1000F09D02068012F13D080698F
:1017600026EA00000004000C0BD0CFE744F8305FFD
:1017700084F80D80A573206940F020002061257356
:101780000120BDE8F0874069EAE72DE9F041002536
:1017900090460E460446202717E04069C043C00625
:1017A0000CD454F8301B6FF01000486144F8105905
:1017B0006777A577206A2062257717E0FEF734FE69
:1017C000A0EB0800B04208D83EB120684169C94387
:1017D0004906E2D40020BDE8F08144F8305F677329
:1017E000A573206940F02000206125730120F2E7F5
:1017F00070B516460D4604460DE02046FFF71AFE6A
:1018000008B1012070BD681C05D0FEF70DFE801BDD
:10181000A84207D835B120684069C0430006ECD41F
:10182000002070BD002044F8300F20216173A073A8
:10183000216941F0200121612073E2E70FB4F8B57E
:101840004FF47A74DDE91B650A4F07E006A8FEF73E
:10185000F1FD042802D008A000F062FA2B46FA1D20
:10186000314606A80094FEF7D1FF0028EED1F8BC5F
:101870005DF814FBF00400205772697465206275EE
:1018800066666572206572726F720A0D0000000054
:1018900070B586B000241848009401940294039413
:1018A000816941F010018161816901F010010491A9
:1018B000816941F004018161816901F004010491B1
:1018C000816941F00801816180690C4E00F00800D7
:1018D0004FF400550490002229463046FEF79EFD45
:1018E00001200095CDE901040220039069463046AD
:1018F000FEF79CFC06B070BD0010024000100140D5
:10190000FEE7FEE7704700F00F01000900EB8000E2
:1019100001EB4000C0B27047F0B5484DA9B00020BF
:10192000E8712A2205F1100113A8FEF71FFC05F14A
:101930001004608DADF87600E06A1E90206B1F9059
:1019400004F1340109220F4620A8FEF70FFC94F899
:101950003D008DF8890094F83E008DF88A00206CD7
:101960002390606C2490A06C2590E06C2690206DF4
:1019700027900120D026CDE91160442217A968469E
:10198000FEF7F4FB0DF14C0C9CE80F00FFF756FF3F
:101990002A481030FEF750FD2028F9D127492A2285
:1019A000103113A8FEF7E2FB608DADF87600E06A17
:1019B0001E90206B1F900922394620A8FEF7D6FB07
:1019C00094F83D008DF8890094F83E008DF88A0067
:1019D000206C2390606C2490A06C2590E06C269085
:1019E000206D27900720CDE91160442217A9684691
:1019F000FEF7BCFB0DF14C0C9CE80F00FFF7F6FD69
:101A0000A87AFFF780FFE870E87AFFF77CFF28717B
:101A1000287BFFF778FF6871687BFFF774FFA87178
:101A2000E879FFF770FF2870287AFFF76CFF68707D
:101A3000687AFFF768FFA87029B0F0BDF0040020B5
:101A4000704730B58FB028216846FEF7A8FB1421F7
:101A50000AA8FEF7A4FB022501200490009510209F
:101A6000059000244FF42010CDE908400795684602
:101A7000FFF74EF908B172B6FEE70F20CDE90A056F
:101A80004FF48060CDE90C4001210AA80E94FFF7C5
:101A900033F8002801D072B6FEE70FB030BD7047B2
:101AA0000148FFF722BB0000DC050020F0B502680A
:101AB000164B174C174D4FF08047984205D0B8424F
:101AC00003D0A04201D0A84203D122F070064A6898
:101AD0003243984205D0B84203D0A04201D0A84278
:101AE00003D122F44074CA6822434C6922F0800278
:101AF000224302608A68C2620A688262984201D107
:101B00000969016301214161F0BD0000002C014021
:101B10000004004000080040064D4FF400544FF40C
:101B20007A7621462846FEF771FC3046FEF76CFBBC
:101B3000F7E700000010014001250D4E0D4C0C4848
:101B4000001D00F0C3FAFFF7E7FE3570A379627954
:101B5000217909A000F0E4F823786278A1780CA03C
:101B600000F0DEF80248083000F0AAFAE7E70000CB
:101B700008000020F0040020205461736B20312005
:101B80003A2025642F25642F256420202020000082
:101B90002025643A25643A25640A0D0002250D4E7D
:101BA0000D4C0C48083000F091FAFFF7B5FE357087
:101BB000A3796279217909A000F0B2F823786278DC
:101BC000A1780CA000F0ACF80248001D00F078FAF3
:101BD000E7E7000008000020F004002020546173B3
:101BE0006B2032203A2025642F25642F2564202085
:101BF000202000002025643A25643A25640A0D005F
:101C000070B5044600680169E26821F4405111434F
:101C100001612169A0680843616908432168CA68B5
:101C200041F20C639A430243CA6020684169A26989
:101C300021F44071114341611E492068884202D15C
:101C4000FFF720F801E0FFF70DF800EBC00101EB12
:101C50000012606864218000B2FBF0F3B3FBF1F383
:101C60006FF018067343B2FBF0F5B2FBF0F605EB2C
:101C70008305322303EB0515B5FBF1F5B6FBF1F651
:101C800005F0F00505EB0615B2FBF0F6B2FBF0F03F
:101C9000B0FBF1F06FF01802504306EB800003EB4D
:101CA0000010B0FBF1F0216800F00F0028448860BC
:101CB00070BD0000003801402DE9F04198461746FC
:101CC0000E460446069D1DE0681C1BD02DB1FEF794
:101CD000ABFBA0EB0800A84214D92068C16821F42E
:101CE000D071C1602068416921F00101416120206B
:101CF00084F83D0084F83E00002084F83C00032076
:101D0000BDE8F0812068006836EA000004D00020B9
:101D1000B842D9D00020F3E70120F9E7FEE7000040
:101D20000FB4054B10B503A9044A029800F028F837
:101D300010BC5DF814FB0000D51E00082400002034
:101D40000907090E002804DB00F1E02080F80014E8
:101D5000704700F00F0000F1E02080F8141D70477C
:101D600002E008C8121F08C1002AFAD17047704764
:101D7000002001E001C1121F002AFBD170470000C2
:101D80002DE9FF4F89B09B460446002506E0252833
:101D90000BD05A460B999047641C6D1C2078002884
:101DA000F5D10DB02846BDE8F08F0027B8460122D6
:101DB000474900E0074314F8013F203B02FA03F0D3
:101DC0000842F7D120782E2819D114F8010F47F0D6
:101DD00004072A280ED06FF02F022078A0F13001DE
:101DE00009290CD808EB880102EB410100EB01083E
:101DF000641CF2E70A98641C50F8048B0A9020785F
:101E00000028CED0642808D0692806D075281ED0B6
:101E10005A460B9990476D1C58E00A994FF00A09F1
:101E200001C90A91002802DA40422D2102E0390559
:101E300004D52B218DF82010012103E0F90704D0EF
:101E40002021F7E78A4608AE0DE00021FAE70A995B
:101E50004FF00A0901C90A91F7E74946FEF7AAF9C6
:101E6000303106F8011D0028F7D1ADEB060000F176
:101E70002009780701D44FF00108C84502DDA8EB1E
:101E8000090000E000208046002706E008A85A4626
:101E9000C05D0B9990476D1C7F1C5745F6DB04E035
:101EA00030205A460B9990476D1CB8F10001A8F1FB
:101EB0000108F5DC05E016F8010B5A460B9990472E
:101EC0006D1CB9F10001A9F10109F4DC641C65E79E
:101ED0000928010013B50A484FF6FF73007801285E
:101EE00002D0022804D009E001226946054803E037
:101EF0000448012269464430FFF742FA00981CBDAD
:101F00000800002054050020FEF74CFDFFF799FD66
:101F1000FFF7BEFC27482649002401602649C0E996
:101F200001144FF48041C0E9034144618461C461FC
:101F30000462FEF785FA08B172B6FEE71D481F4934
:101F400054304FF416550160C0E901540C26C460AA
:101F5000C0E904468461C461FFF787F908B172B62D
:101F6000FEE71448164998300160C0E90154C46086
:101F7000C0E904468461C461FFF777F908B172B61D
:101F8000FEE710A0FFF7CCFE0121154800F096F8FF
:101F900013480021001D00F091F800F051F8114A9B
:101FA0001149124800F024F8012000F051F8FEE732
:101FB0000054004000050020A086010000440040BD
:101FC0000048004057656C636F6D652048616E6422
:101FD0006D616B652052544F53205254430A0D00DB
:101FE0000C0000209D1B0008391B0008191B00086D
:101FF000F0B516460F46054672B60F48A0F1080424
:10200000606008306461E060002000F03BF8284622
:1020100004F11805C5F88801012000F033F802200A
:10202000C5F8187300F02EF80448C5F8A864446099
:1020300062B60120F0BD000030000020000000204A
:1020400072B602494BF680300860704700000020ED
:102050004FF0E02100220A618A61084A136823F0E8
:102060007F4343F000431360054A12685043401E0B
:10207000486107200861FEF74CB8000020ED00E041
:102080000000002000EBC00101EB00120649064BE6
:1020900001EB0211183B01F5A87243F830204FF014
:1020A0008070C1F88C0170474000002002484168F0
:1020B00049684160704700000000002001607047DF
:1020C00072B60168491C016062B6704772B64FF083
:1020D0008061064A02E072B6116062B60368002BA6
:1020E000F9DD591E016062B67047000004ED00E0A2
:1020F00000000000000000000102030406070809B8
:102100000000000001020304282100080000002054
:1021100028000000601D0008502100082800002051
:10212000000A0000701D0008000000000000000010
:10213000010000000000000000000000010000009D
:1021400010000000000000000024F4000000000067
:0400000508000135B9
:00000001FF
