:020000040800F2
:10000000301F002009020008F31C0008BB1B000879
:10001000F11C0008B30300089F390008000000002D
:100020000000000000000000000000000B2000089D
:10003000610400080000000009200008ED0000082D
:1000400023020008230200082302000823020008FC
:1000500023020008230200082302000823020008EC
:1000600023020008230200082302000823020008DC
:1000700023020008230200082302000823020008CC
:1000800023020008230200082302000823020008BC
:10009000293900082302000823020008230200086F
:1000A000230200088520000823020008230200081C
:1000B000230200082302000823020008230200088C
:1000C000230200082302000823020008230200087C
:1000D000230200082302000823020008230200086C
:1000E00023020008230200082302000872B62DE94B
:1000F000F00F0D480168C1F800D049680160D1F8DF
:1001000000D0BDE8F00F62B6704707480268D2F829
:1001100000D0BDE8F00F0FBC5DF804CB01B05DF876
:1001200004EB01B062B670470400002000F002F852
:1001300000F05AF80AA090E8000C82448344AAF127
:100140000107DA4501D100F04FF8AFF2090EBAE825
:100150000F0013F0010F18BFFB1A43F001031847FB
:10016000403A0000603A00000A444FF0000C10F8DA
:10017000013B13F0070408BF10F8014B1D1108BF25
:1001800010F8015B641E05D010F8016B641E01F8C5
:10019000016BF9D113F0080F1EBF10F8014BAD1C15
:1001A0000C1B09D16D1E58BF01F801CBFAD505E033
:1001B00014F8016B01F8016B6D1EF9D59142D6D38D
:1001C000704700000023002400250026103A28BFB5
:1001D00078C1FBD8520728BF30C148BF0B607047B9
:1001E0001FB51FBD10B510BD00F0A9F81146FFF7EF
:1001F000F7FF03F0E5FB00F0C7F803B4FFF7F2FFE9
:1002000003BC00F0CFF800000948804709480047C8
:10021000FEE7FEE7FEE7FEE7FEE7FEE7FEE7FEE7B6
:10022000FEE7FEE704480549054A064B7047000013
:10023000832000082D01000830190020301F002005
:10024000301B0020301B002010B5431C02E010F8CA
:10025000011B71B18107FAD14FF0013202C88C1A2B
:100260008C4314EAC211F9D0C01A0A0603D0C01E8A
:1002700010BDC01A10BD0A0401D0801E10BD0902B5
:10028000FCD0401E10BD10B5203AC0F00B80B1E884
:100290001850203AA0E81850B1E81850A0E81850BB
:1002A000BFF4F5AF5FEA027C24BFB1E81850A0E8C4
:1002B000185044BF18C918C0BDE810405FEA827CDE
:1002C00024BF51F8043B40F8043B08BF7047D207F5
:1002D00028BF31F8023B48BF11F8012B28BF20F896
:1002E000023B48BF00F8012B70474FF0000200B5F9
:1002F000134694469646203922BFA0E80C50A0E849
:100300000C50B1F12001BFF4F7AF090728BFA0E8F6
:100310000C5048BF0CC05DF804EB890028BF40F8C2
:10032000042B08BF704748BF20F8022B11F0804F04
:1003300018BF00F8012B704770477047704775462B
:1003400000F02CF8AE4605006946534620F0070041
:10035000854618B020B5FFF765FFBDE820404FF097
:1003600000064FF000074FF000084FF0000B21F09F
:100370000701AC46ACE8C009ACE8C009ACE8C0096C
:10038000ACE8C0098D46704710B50446AFF3008055
:100390002046BDE81040FFF730BF0000004870471E
:1003A000D018002001491820ABBEFEE7260002004D
:1003B0007047FEE7002070470020704710B500220C
:1003C0000449054802F01AF80449034802F010F8FD
:1003D000002010BDA0140020E8060020B810002066
:1003E00010B50146034802F003F8024801F0E4FFAB
:1003F000002010BDE8060020094C0A4E4FF47A7523
:100400007068401C70602046FFF71EFF82B22B46CA
:100410002146054801F078FB284600F025F8EFE773
:10042000183B00080800002060060020094C0A4D17
:100430004FF47A76A868401CA8602046FFF704FFB6
:1004400082B233462146054801F05EFB642000F08D
:100450000BF8EFE75C3B000808000020A406002032
:10046000704772B6FEE7000070B5044600F00CF964
:100470000546601C02D004480078044400F004F9EA
:10048000401BA042FAD370BD740000202DE9F84F44
:10049000DFF8B891002409F1040A0AF1040B23469D
:1004A0000F270BF1040EC9E00125A5402A40AA42FE
:1004B0007DD1674ED1F804C0ACEB0608B44532D00C
:1004C00014DCBCF1030F3AD009DCBCF1000F2AD0D8
:1004D000BCF1010F1CD0BCF1020F31D11DE0BCF109
:1004E000110F17D0BCF1120F2AD119E0B8F5881FEF
:1004F00019D006DCB8F5803F15D0B8F5801F1FD1A4
:1005000011E0B8F5001F0ED0B8F5041F18D10AE0AD
:10051000CB6815E0CB681B1D12E0CB6808330FE0F9
:10052000CB680C330CE08B682BB1012B4FF0080328
:1005300003D0456104E0042302E0056100E00023EC
:10054000FF2A01D8064601E000F104064FEA8405BF
:1005500001D9A5F12005D6F8008007FA05FC28EAA4
:100560000C0803FA05F548EA0508C6F800804D684E
:10057000ED0062D5374DAE6946F00106AE61AD695A
:1005800024F0030605F001050095334D06EB050C3C
:10059000DCF80850A607360F07FA06F825EA080522
:1005A000DFF8B880404503D14FF0000817E044E081
:1005B000DFF8AC80404502D14FF001080FE0DFF8D2
:1005C000A480404502D14FF0020808E0DFF898808F
:1005D000404502D14FF0030801E04FF0040808FA4B
:1005E00006F848EA0508CCF808804D68D9F800609C
:1005F000ED034D4601D5164300E096432E604D684D
:10060000DAF80060AD03554601D5164300E0964385
:100610002E604D68DBF80060ED025D4601D51643A3
:1006200000E096432E604D68DEF80060AD0275462E
:1006300001D5164300E096432E60641C0D682A46DF
:10064000E5407FF431AFBDE8F88F000000040140C1
:10065000000011100010024000000140000801409D
:10066000000C01400010014000140140C26821EA62
:1006700002030A4043EA0241016170470AB1016185
:1006800070470904FBE700000148806870470000DC
:10069000740000200248816802781144816070472C
:1006A00074000020074810B5016841F01001016096
:1006B000032000F08FF80F2000F006F800F03EF85D
:1006C000002010BD0020024000B5014687B0002286
:1006D000192000F05FF8192000F04EF813488169E6
:1006E00041F400618161806905A900F40060069011
:1006F000684600F05BFE00F089FE0D490D4AB0FB34
:10070000F1F10D48491E0260416040F2E7320021DC
:10071000C0E90321816001F051F810B1012007B058
:1007200000BD054801F078F8F9E70000001002402C
:1007300040420F00002C0140881800200C4808B5EA
:10074000816941F001018161816901F0010100913C
:10075000C16941F08051C161C06900F080500090D2
:100760000448416821F0E06141F00071416008BD3A
:100770000010024000000140002809DB00F01F02C9
:10078000012191404009800000F1E020C0F80011F3
:1007900070470000F0B40E4B1B680C46C3F30223F5
:1007A000C3F10705042D00D90425191D072901D21D
:1007B000002300E0DB1E012606FA05F1491E214058
:1007C00099409E40761E16403143F0BC03F0E8B8D5
:1007D0000CED00E0064900F0070208684FF6FF0341
:1007E000184040EA0220034A1043086070470000A6
:1007F0000CED00E00000FA0510B50C0607D501F07D
:10080000070101EB810100EBC100283005E001EB9D
:10081000810100EBC10000F5B47099B232B1012240
:1008200002730181190C4181002010BD0022027366
:10083000C180F9E7704701EB810200EBC202D0F8FA
:10084000E802D26B01F0CBBF01EB810200EBC202E8
:10085000D0F8E802D2F87C2102F024B870B5044642
:100860000B0601F0070000EB800104EBC1014FF023
:1008700001024FF0000503D581F82920283103E05B
:1008800081F8695101F5B471087094F8A802012843
:1008900008D084F8A822206802F044FC84F8A8520A
:1008A000002070BD022070BD70B5044601F00F003D
:1008B0006268904201D9012070BD0B0601F007006B
:1008C00000EB800104EBC1014FF001024FF0000585
:1008D00003D581F82920283103E081F8695101F519
:1008E000B4718D70087094F8A802012808D084F8BB
:1008F000A822206802F0B3FC84F8A852002070BD42
:10090000022070BD2DE9F05F04685FEA424C0B786D
:100910008D69B4F850C04FF000064BF68F7948F25D
:10092000800A48F68F7B48F2C00E4FF480672AD5C4
:100930004FF0020808EBC308C44407EB4C07E45B24
:10094000C4F30904A54203D32D1B8D6101D00BE034
:100950008E61066836F8235005EA090585F40055CE
:1009600045EA0A0526F82350520609D50D78036892
:1009700033F8252002EA0B0242EA0E0223F8252072
:1009800084B30A8929E04FF0060808EBC308C44481
:1009900007EB4C07E45BC4F30904A54203D32D1B0A
:1009A0008D6101D00BE08E61066836F8235005EAB0
:1009B000090585F4005545EA0A0526F82350520634
:1009C00009D40B78056835F8232002EA0B0242EAC5
:1009D0000E0225F823202CB14A8949690068234674
:1009E00002F0ACFF2046BDE8F09F2DE9F05F054620
:1009F00000680C465FEA426C16468B692278B0F8B4
:100A000050C048F68F774CF280094FF6FF7B4FF4C9
:100A1000004E4FF4806A4FF000017BD54FF0020882
:100A200008EBC208E0440AEB480C30F80C00C0F3B5
:100A30000900834211D91B1AA3610FD0730407D593
:100A40002E6836F822303B4043EA090326F822306C
:100A500094F82420012A50D04EE1A161607810B1B1
:100A6000012813D01AE02868B0F85030184400EB81
:100A70000210B0F8042422F4F842A0F80424B0F8DC
:100A8000042442F40042A0F8042407E02868B0F8E7
:100A90005030184400EB0210A0F804146278286863
:100AA00012B1012A11D018E0B0F850100844217892
:100AB00000EB0110B0F80C1421F4F841A0F80C146C
:100AC000B0F80C1441F4004105E0B0F85020104497
:100AD000227800EB0210A0F80C1421782846FFF7CA
:100AE000AAFE7004B8D521782A6832F8210038406F
:100AF00040EA090022F82100FEE0626902446261D6
:100B0000E2690244E2612369226A9A4203D31846E9
:100B1000111A04E038E084F824100AB1104621626A
:100B2000617811B1012923D02BE02968B1F8502058
:100B30001144227801EB021101F2044148B13E2830
:100B40000FD84208C30700D0521C0BEA82220A8049
:100B500017E00A8822F4F8420A800A8842F4004228
:100B6000F5E74209C30600D1521E4EEA8222EEE7A3
:100B70002968B1F850201144227801EB0211A1F844
:100B8000040483B22289B3E04FF0060808EBC208E0
:100B9000E0440AEB480C30F80C00C0F30900834233
:100BA00011D31B1AA3610FD0730407D42E6836F833
:100BB00022303B4043EA090326F8223094F82420EF
:100BC000012A50D098E0A161607810B1012813D0BB
:100BD0001AE02868B0F85030184400EB0210B0F862
:100BE000042422F4F842A0F80424B0F8042442F4C7
:100BF0000042A0F8042407E02868B0F850301844F8
:100C000000EB0210A0F804146278286812B1012ADF
:100C100011D018E0B0F850100844217800EB011012
:100C2000B0F80C1421F4F841A0F80C14B0F80C142E
:100C300041F4004105E0B0F850201044227800EB68
:100C40000210A0F80C1421782846FFF7F4FD700478
:100C500052D42278296831F82200384040EA09004D
:100C600021F8220048E0626902446261E2690244BC
:100C7000E2612369226A9A4203D31846111A21625B
:100C800004E00AB11046216284F8241062782968D1
:100C900012B1012A22D029E0B1F850201144227863
:100CA00001EB021101F20C4148B13E280FD8420875
:100CB000C30700D0521C0BEA82220A8016E00A8881
:100CC00022F4F8420A800A8842F40042F5E7420919
:100CD000C30600D1521E4EEA8222EEE7B1F8502040
:100CE0001144227801EB0211A1F80C04628983B24D
:100CF0006169286802F040FE21782A6832F82100F4
:100D000048F6BF73184080F0300048F28003184363
:100D100022F821000020BDE8F09F01F0070101EB5F
:100D2000810100EBC100D0F8840170472DE9F0414A
:100D300004460F0601F0070000EB800104EBC1013F
:100D40004FF001064FF0000503D581F829602831E6
:100D500003E081F8695101F5B47108700A61CB7044
:100D60004A7802B1C881022B00D10D7194F8A80213
:100D7000012809D084F8A862206802F0A5F8284666
:100D800084F8A852BDE8F0810220FBE770B50C465C
:100D900001F0070505EB850100EBC101C1E95F2307
:100DA0000022C1F8842181F8692181F8685101F598
:100DB000B4716207006802F0A7FA002070BD70B538
:100DC00004460D4601F007006168884201D9012000
:100DD00070BD29064FF000064FF0010207D500EB69
:100DE000800104EBC10181F82920283107E005EBDF
:100DF000850104EBC10181F8696101F5B4718A7064
:100E0000087094F8A802012807D084F8A822206866
:100E100002F061FA680702D006E0022070BD04F516
:100E20002C71206802F019FA84F8A862002070BDC5
:100E300070B50C4601F0070505EB850100EBC1011B
:100E4000C1E90F23012281F84C208B6400234B64FD
:100E500081F8292001F8285F6207006802F054FA3F
:100E6000002070BD1FB50446006802F063FD000459
:100E700002D5204600F03EFF206802F05BFD4005F1
:100E80000CD5206830F8441F21F480610180204691
:100E900000F01EF90021204600F035F9206802F02C
:100EA00049FD400405D5206830F8441F21F48041F5
:100EB0000180206802F03EFD800405D5206830F8EE
:100EC000441F21F400510180206802F033FDC0046A
:100ED00014D5206830F8401F21F0040101802068FB
:100EE00030F8401F21F008010180204600F003F98E
:100EF000206830F8441F21F480510180206802F0FE
:100F000019FD00053ED522680020694632F82030E0
:100F100021F81030401CC0B20828F7D332F8400F37
:100F200040F001001080206830F8402F22F00102CC
:100F300002802068B0F844205205FBD530F8442FD9
:100F400022F4806202800020236831F8102023F808
:100F50002020401CC0B20828F6D3206830F8401F7B
:100F600041F008010180206830F8441F21F400613D
:100F70000180206830F8401F41F0040101802046C4
:100F800000F0F6F8206802F0D5FC800508D520684E
:100F900030F8441F21F400710180204600F0AFF8C2
:100FA000206802F0C7FCC00505D5206830F8441F52
:100FB00021F4807101801FBD2DE9F04186B004004D
:100FC00004D094F8A902002520B108E0012006B061
:100FD000BDE8F08184F8A852204600F05BF80320B9
:100FE00084F8A902206802F031F904F110011422FA
:100FF00088466846FFF747F994E80F0002F090F83A
:101000000226D0BB0021206802F0AEFC00200127A0
:101010000FE000BF00EB800104EBC10181F82970F3
:1010200001F8280FC881CD700D614D61401CC0B220
:101030008D6161688142EDD8002011E000EB8001F4
:1010400004EBC10181F8695181F8680181F86B51A5
:10105000C1F87851C1F87C51401CC0B2C1F8805130
:1010600061688142EAD8142241466846FFF70BF9CD
:1010700094E80F0002F0E1F810B184F8A962A5E746
:1010800084F8245084F8A972206802F0D4F8002073
:101090009DE7000008B500680B49884212D10B4853
:1010A000C16941F40001C161C069002200F400007F
:1010B000009011461420FFF76DFBBDE80840142096
:1010C000FFF75ABB08BD0000005C00400010024062
:1010D00070B5044680680125022801D0FFF7C1F9E8
:1010E0002946D4F8E80201F0C6FCD4F8E802BDE8CD
:1010F000704001F082BCD0F8E80201F0A6BCD0F844
:10110000E80201F0ACBC10B5044690F8A802012832
:101110000BD0012084F8A80284F82410206802F083
:1011200025FC002084F8A80210BD022010BDD0F8D4
:10113000E82200F52C71104601F0A9BC10B5044658
:1011400090F8A802012810D0012084F8A802206895
:1011500002F0E0FB01212046FFF76CFB206802F063
:1011600068F8002084F8A80210BD022010BD00001D
:1011700010B50446D0F8E80201F0C8FCA0690028C8
:1011800004D00348016841F00601016010BD000071
:1011900010ED00E02DE9F84305460078354CC00716
:1011A00054D0E0690026C00008D4E06940F08050C7
:1011B000E061E069012600F0805000902E4801684F
:1011C000C90512D40168804641F480710160FFF7BF
:1011D0005BFA074605E000BFFFF756FAC01B64281C
:1011E00023D8D8F80000C005F6D5206A10F4407066
:1011F00021D0A98801F4407181421CD0206A1F4986
:10120000012220F440700A6000220A602062C007B8
:1012100011D0FFF739FA074641F2883808E000BFDD
:10122000FFF732FAC11B414502D90320BDE8F8831C
:10123000206A8007F4D5206A696820F4407008436A
:1012400020621EB1E06920F08050E06128788007BC
:1012500005D56068A96820F440400843606028789C
:10126000C00605D56068E96820F480000843606026
:101270000020DBE7001002400070004040044242C2
:101280002DE9F0470F46050061D0434E306800F06D
:101290000700B84209D2306820F0070038433060B8
:1012A000306800F00700B84251D128683B4C8107F4
:1012B00012D5400703D5606840F4E060606028788C
:1012C000000703D5606840F4605060606068A968FA
:1012D00020F0F000084360602878C00728D06868D4
:1012E000012810D02168022810D0890700292EDAA1
:1012F000616821F0030101436160FFF7C5F9804691
:1013000041F288390DE021688903EFE78901EDE7B3
:10131000FFF7BAF9A0EB0801494502D90320BDE85F
:10132000F0876068696800F00C00B0EB810FEFD1C6
:10133000306800F00700B8420BD9306820F0070091
:1013400038433060306800F00700B84201D0012017
:10135000E5E72878400705D56068E96820F4E06093
:10136000084360602878000706D56068296920F482
:10137000605040EAC100606000F058F86168084AB7
:10138000C1F30311515CC840064908600648006873
:10139000FFF79AF90020C2E7002002400010024047
:1013A000003B000880000020780000200F2202602F
:1013B0000C4A536803F003034360536803F0F003DF
:1013C0008360536803F4E063C36052684FF4E063E2
:1013D00003EAD20202610448006800F007000860D6
:1013E00070470000001002400020024004480549F8
:1013F00000684968044AC1F30221515CC840704743
:101400008000002000100240103B000804480549FD
:1014100000684968044AC1F3C221515CC840704762
:101420008000002000100240103B000812A185B08F
:101430000FC98DE80F0014A0144A00680490516889
:10144000134801F00C03042B10D0082B0ED1C1F36C
:101450008343C9031DF803000AD5516804AAC1F3E8
:101460004041515C0A4A5043B0FBF1F005B070476F
:1014700008494843FAE70000020304050607080983
:101480000A0B0C0D0E0F101001020000001002409C
:1014900000127A0000093D002DE9F84F040070D0D9
:1014A0002078C04DC00749D06868C0F3810001288A
:1014B00007D06868C0F38100022809D16868C003BA
:1014C00006D52868800339D560680028E7D035E064
:1014D0006068B0F5803F0BD010B1B0F5A02F11D0EF
:1014E000286820F480302860286820F4802002E0FA
:1014F000286840F480302860606890B1FFF7C4F835
:1015000006460AE0286840F480202860F0E700BF23
:10151000FFF7BAF8801B642873D828688003F7D5D2
:101520000CE0FFF7B1F8064605E000BFFFF7ACF8A6
:10153000801B6428F0D828688003F7D420789A4E5E
:1015400080074FF001094FF0000839D5686810F0A6
:101550000C0F07D06868C0F38100022809D16868C1
:10156000C00306D42868800714D52069012808D153
:1015700010E02069B0B1C6F80090FFF785F8074683
:1015800005E00AE1FFF780F8C01B0228C4D82868EC
:101590008007F7D52868616920F0F80040EAC100AB
:1015A00028600DE0C6F80080FFF76EF8074604E0FB
:1015B000FFF76AF8C01B022823D828688007F7D4F1
:1015C000207800072CD57948A169D9B1C0F80090DE
:1015D000FFF75AF8074604E0FFF756F8C01B022849
:1015E0000FD8686A8007F7D571484FF4FA51006840
:1015F000B0FBF1F0009000BF0098411E0091FAD2BC
:101600000EE080E0C0F80080FFF73EF8074604E0F7
:10161000FFF73AF8C01B022875D8686A8007F7D42C
:101620002078400760D5E8690027C00008D4E86941
:1016300040F08050E861E869012700F08050009098
:101640005C480168C90513D40168834641F4807180
:101650000160FFF719F8824606E000BFFFF714F8B3
:10166000A0EB0A0064284ED8DBF80000C005F5D5D1
:10167000E06801280AD008B1052813D0286A20F0B4
:1016800001002862286A20F0040002E0286A40F085
:1016900001002862E06841F2883B98B1FEF7F4FF50
:1016A00082460BE0286A40F004002862EEE700BFA3
:1016B000FEF7EAFFA0EB0A0159455AD8286A8007CD
:1016C000F6D50CE0FEF7E0FF824605E0FEF7DCFF12
:1016D000A0EB0A0159454CD8286A8007F6D41FB1FF
:1016E000E86920F08050E861E06988B36968C1F377
:1016F0008101022944D00228C6F8608004D0FEF798
:10170000C3FF044638E034E0FEF7BEFF074604E0BE
:10171000FEF7BAFFC01B02282BD828688001F7D437
:10172000206AB0F5803F05D16868A16820F40030D8
:1017300008436860D4E908010843696821F474111A
:1017400008436860C6F86090FEF79EFF044606E016
:1017500025E000BFFEF798FF001B022809D8286883
:101760008001F7D51BE000BFFEF78EFF001B0228AB
:1017700002D90320BDE8F88F28688001F4D40EE078
:101780000128F7D06868226A00F48031914204D1C0
:10179000616A00F47010884201D00120EAE700205D
:1017A000E8E700000010024000004242800442428C
:1017B00080000020007000407047704710B50400A2
:1017C00003D094F83D0010B107E0012010BD0020C7
:1017D00084F83C00204600F01EF8022084F83D000A
:1017E000211D206800F054FC012084F8460084F894
:1017F0003E0084F83F0084F8400084F8410084F8FB
:10180000420084F8430084F8440084F8450084F8DA
:101810003D00002010BD704790F83D10012901D017
:1018200001207047022180F83D100168CA6842F02B
:101830000102CA6000680B49884208D0B0F1804FAD
:1018400005D00949884202D00849884204D18168FC
:1018500001F00701062903D0016841F00101016090
:1018600000207047002C01400004004000080040A8
:10187000704770B50446006801694FF00005C94320
:10188000890715D4C168C943890711D4E91E0161CC
:1018900001202077206880698007204602D0FFF76A
:1018A000E7FF04E000F098F8204600F096F825776E
:1018B00020680169C943490717D4C168C94349076A
:1018C00013D46FF004010161022020772068806941
:1018D00010F4407F204602D0FFF7CAFF04E000F07A
:1018E0007BF8204600F079F8257720680169C94324
:1018F000090716D4C168C943090712D46FF008015B
:101900000161042020772068C0698007204602D04A
:10191000FFF7AEFF04E000F05FF8204600F05DF84E
:10192000257720680169C943C90617D4C168C9432E
:10193000C90613D46FF010010161082020772068D8
:10194000C06910F4407F204602D0FFF791FF04E009
:1019500000F042F8204600F040F825772068016941
:10196000C943C90708D1C168C943C90704D1891E41
:101970000161204600F032F820680169C943090678
:1019800009D4C168C943090605D46FF0800101611B
:101990002046FFF711FF20680169C943490609D4B1
:1019A000C168C943490605D46FF040010161204672
:1019B00000F01EF820680169C94389060BD4C1688C
:1019C000C943890607D46FF0200101612046BDE8B4
:1019D0007040FFF7F2BE70BD704770470068034962
:1019E000884201D1FEF756BE70470000002C01402E
:1019F000704770B5040004D094F83D00002510B184
:101A000006E0012070BD84F83C50204600F022F82A
:101A1000242084F83D002068C16821F40051C16091
:101A2000204600F06BFB2068016921F490410161C0
:101A30002068416921F02A0141612068C16841F4B0
:101A40000051C1602564202084F83D0084F83E00E8
:101A5000002070BD30B585B000240094019402943C
:101A60000394244D0368244802210322AB421AD177
:101A7000C36943F40033C361C36903F400330493BF
:101A8000836943F00403836180691C4D00F0040006
:101A900004900420CDE90001039269462846FEF730
:101AA000F5FC08201CE0164DAB4220D1C36943F47D
:101AB0008023C361C36903F480230493836943F0E3
:101AC000080383618069039200F0080004902815E0
:101AD000CDE900010B4D69462846FEF7D7FCE81416
:101AE000CDE90004694628460294FEF7CFFC05B014
:101AF00030BD0000004400400010024000080140DA
:101B000000480040000C01402DE9F843044690F8DD
:101B10003D001F4616460D4620284CD1C5B1BEB12A
:101B200094F83C00012846D0012084F83C004FF096
:101B30000008C4F84080212084F83D00FEF7A4FD91
:101B4000A6848146E684A068B0F5805F03D004E0F7
:101B50000120BDE8F883206928B12E465FF000051A
:101B600084F83C800EE00026FAE78021204600F051
:101B700021FBA0B9AEB116F8010B21684860E08CDA
:101B8000401EE084E08C4B464FF000020097002896
:101B9000EBD14FF04001204600F00CFB30B10320A8
:101BA000D7E735F8020BC0F30800E6E7202084F8F9
:101BB0003D000020CDE70220CBE7FEE7F0B5002393
:101BC0000A24302537261F4611E000BFB4EB107FF2
:101BD00002D905EB107C01E006EB107C01F813C084
:101BE00001EB430C00015B1C8CF80170DBB29342EB
:101BF000ECD3F0BD074C084E4FF400552068294641
:101C0000401C20603046FEF731FD6420FEF72CFCBE
:101C1000F4E70000080000200010014070B586B015
:101C200000241C480094019402940394816941F0BB
:101C300010018161816901F010010491816941F015
:101C400020018161816901F020010491816941F0E5
:101C500004018161816901F004010491816941F00D
:101C60000801816180690C4E00F008004FF4604566
:101C70000490002229463046FEF700FD0120009521
:101C8000CDE901040220039069463046FEF7FEFBD1
:101C900006B070BD001002400010014010B50022D7
:101CA0000F49104800F074FD08B1FEF7DAFB0E4949
:101CB0000C4800F051FF08B1FEF7D3FB0B4909486F
:101CC00000F08EFB08B1FEF7CCFB064800F09AFF4F
:101CD000002803D0BDE81040FEF7C3BB10BD0000D4
:101CE00014000020E80600206001002064000020AD
:101CF000FEE7FEE72DE9F84F044640F68F7B48F6F5
:101D00000F7A4FF002094FF4806874E1B0F8441084
:101D100011F00F063AD030F8267039047DD530F82E
:101D2000261001EA0B0141F0800120F8261006EB95
:101D3000860004EBC00595F8740105F5B47500281C
:101D40006CD0E87802286AD02878226832F820100F
:101D500048F68F73194048F2C003194322F8201047
:101D60002878D4F800C03CF82010BCF85020490472
:101D70007ED509EBC000111808EB41003CF80000CB
:101D80008005800D009074D02A89D8E0C9062DD432
:101D9000018801EA0A0141F400410180216804F14F
:101DA0002805B1F850202B7809EBC300024408EB5A
:101DB0004200085AC0F309006064E16B0844E06324
:101DC00000212046FEF737FD94F8240000289CD01F
:101DD000A869002899D194F82400216840F0800077
:101DE000A1F84C00002084F8240004E1018804F5E7
:101DF000B4750A0521D5B0F850202B78062101EBE7
:101E0000C3010A4408EB4201405A04F52C71C0F3A7
:101E10000903EB61EA88206802E0ACE068E07AE060
:101E200001F08CFD2168088800EA0B0040F080007A
:101E300008802046FFF77BF9DDE00904D5D501884D
:101E400001EA0B0141F0800101802068B0F85020C8
:101E50002B78062101EBC3010A4408EB4201405AEA
:101E600083059B0DEB6110D0696971B1EA8801E0CF
:101E700058E056E0206801F061FDE96968690844AE
:101E8000686100212046FEF7DFFC20680188090513
:101E90002DD4B0F850100844296900F20C4051B11B
:101EA0003E2910D84A08C90700D0521C4FF6FF71CE
:101EB00001EA82210FE0018821F4F84101800188C4
:101EC00041F4004107E04A09C90600D1521E4FF40F
:101ED000004141EA82210180206801884BF68F721F
:101EE000114081F4405148F280021143018082E0A8
:101EF000D4F800C0BCF850102A78062000EBC200CD
:101F0000014408EB41003CF800008005800D009082
:101F10001AD0EA8813E03A4629462046FEF7F2FC3A
:101F2000009011E0062101EBC000111808EB410000
:101F30003CF800008005800D009005D06A890346BA
:101F40006046696901F0FAFCE96900980844E861B3
:101F50006969009808446861A86918B129690098FE
:101F6000814204D929782046FEF76EFC03E0294619
:101F7000206801F0C9F938063DD506EB860004EB70
:101F8000C001206830F8262002EA0A0242F400422A
:101F900020F8262091F82B002831032804D018B10E
:101FA000022824D1F80522D42368B3F850200D78F4
:101FB00009EBC500024408EB4200185A8A69C0F3D5
:101FC000090082420CD9121A8A610BD04A69024474
:101FD0004A61CA691044C861206801F095F90AE0B5
:101FE00000208861E9B22046FEF725FC03E03A466E
:101FF0002046FEF7FAFC2068B0F8441009043FF5CB
:1020000085AE0020BDE8F88F7047704730B593B0BB
:1020100028216846FEF769F914210AA8FEF765F938
:10202000002401200F9410941194010412948DE85F
:10203000130004900005CDE90810022507956846B5
:10204000FFF72AFA08B172B6FEE70F20CDE90A05BC
:102050004FF48060CDE90C4001210AA80E94FFF7EF
:102060000FF908B172B6FEE710200F9080041290AD
:102070000FA8FFF78FF8002801D072B6FEE713B063
:1020800030BD70470148FFF7F4BB000088180020FE
:10209000F0B50268164B174C174D4FF08047984229
:1020A00005D0B84203D0A04201D0A84203D122F00B
:1020B00070064A683243984205D0B84203D0A04225
:1020C00001D0A84203D122F44074CA6822434C696B
:1020D00022F08002224302608A68C2620A68826239
:1020E000984201D10969016301214161F0BD0000FD
:1020F000002C0140000400400008004070B5044678
:1021000000680169E26821F44051114301612169CD
:10211000A0680843616908432168CA6841F20C63FA
:102120009A430243CA6020684169A26921F4407160
:10213000114341611E492068884202D1FFF766F9C8
:1021400001E0FFF753F900EBC00101EB00126068FA
:1021500064218000B2FBF0F3B3FBF1F36FF01806DB
:102160007343B2FBF0F5B2FBF0F605EB83053223C7
:1021700003EB0515B5FBF1F5B6FBF1F605F0F0053F
:1021800005EB0615B2FBF0F6B2FBF0F0B0FBF1F098
:102190006FF01802504306EB800003EB0010B0FB19
:1021A000F1F0216800F00F002844886070BD000045
:1021B000003801402DE9F041984617460E46044686
:1021C000069D1DE0681C1BD02DB1FEF75DFAA0EB4B
:1021D0000800A84214D92068C16821F4D071C160F8
:1021E0002068416921F001014161202084F83D000F
:1021F00084F83E00002084F83C000320BDE8F08114
:102200002068006836EA000004D00020B842D9D027
:102210000020F3E70120F9E72DE9F041D0F8C032C2
:10222000D0F8B822CAB101EB810500EB8504002685
:10223000E7693FB103EBC5039B6BB7FBF3F503FB0A
:10224000157323B1C2F814620020BDE8F0810023A9
:102250001A46E66100F063FCF6E70220F5E770B588
:102260000546D0F8B84200F05EFBC4F80C02D5F881
:10227000B80248B1D5F8BC12D4F80402CA6804F513
:1022800003719047002070BD022070BD70B50446F8
:102290000026812100F09AFA002501212046E562FE
:1022A00000F094FA82212046C4F86C5100F08EFAB6
:1022B0002564D4F8B80248B1D4F8BC0204F52E74F1
:1022C00040688047206800F0FAFD2560304670BD08
:1022D00010B5D0E9AE4159B194F80002FF2807D0FB
:1022E0008B6894F8012221469847FF2084F8000269
:1022F000002010BD0A21018000487047880000209E
:102300004321018000487047D8000020432101800C
:102310000048704794000020432101800048704726
:102320001C0100202DE9F04104460026007C4FF4FA
:102330000077012590B3402302228121204600F03E
:1023400047FB4023E56202220121204600F040FBCA
:102350000823032282212046C4F86C5100F038FB88
:102360004FF40770256400F0ABFDC4F8B802F8B173
:102370000546D4F8BC02006880470020C5F8140266
:10238000C5F81802207CD5F8042298B14023012119
:10239000204600F029FB3046BDE8F081FFE73B46D0
:1023A00002228121204600F013FB3B46E562CAE78A
:1023B0000126F0E73B46EAE710B5D0F8B81269B15C
:1023C000027C002AD1F8042205D04023012100F02C
:1023D0000BFB002010BD4FF40073F7E7022010BD87
:1023E00002460220002902D00020C2F8BC12704729
:1023F000D0F8B802C0F8041200207047D0F8B80234
:10240000C0F81022C0F80812002070472DE9FC41E6
:102410000546D0F8B87200208DF80000ADF8040031
:10242000064608780C4610F0600121D020293BD1E7
:10243000E288AAB10006607807D5D5F8BC128B688F
:1024400039469847E288394626E087F80002A079A5
:1024500087F80102E2883946284600F04FF828E064
:10246000D5F8BC12607800228B682146984720E09E
:10247000607820B10A2809D00B2815D110E095F812
:102480009C02032810D1022201A905E095F89C02C4
:10249000032809D101226946284600F049F808E0DE
:1024A00095F89C02032804D02146284600F01BF82A
:1024B00002263046BDE8FC8110B5D0F8B42252683F
:1024C0009047002010BD134610B50A46002100F0C9
:1024D0008BFA002010BD134610B50A46002100F00B
:1024E0001EFB002010BD10B50446802100F0FCFA50
:1024F0002046BDE81040002100F0F6BA10B50323D5
:10250000C0F85C21C0F89432C0F8602113460A4636
:10251000002100F069FA002010BD10B5052100234C
:10252000C0F894121A46194600F05EFA002010BD59
:1025300010B50223C261C0F89432026213460A4603
:10254000002100F0ECFA002010BD10B5042100239A
:10255000C0F894121A46194600F0E1FA002010BDA6
:1025600010B50A46024903A000F0E2F8004810BD89
:10257000B80E002043444320436F6E666967000035
:1025800012200880004870473400002010B50A4629
:10259000024903A000F0CCF8004810BDB80E00209E
:1025A00043444320496E74657266616365000000B0
:1025B00004200880004870473000002010B50A460B
:1025C000024903A000F0B4F8004810BDB80E002086
:1025D00053544D6963726F656C656374726F6E6995
:1025E0006373000010B50A46024903A000F0A0F88A
:1025F000004810BDB80E002053544D3332205669A8
:10260000727475616C20436F6D506F7274000000BE
:1026100010B51A2008800A480168001D0468001DD2
:102620000068081809D008220649FFF7C7FA0549CB
:10263000042210312046FFF7C1FA0248801E10BD67
:10264000E8F7FF1F4A000020F8B504460020ADF867
:10265000000048880D46010A082948D2DFE801F049
:102660004704091747473C45D4F8B012207C0A6854
:1026700019E0207C02260028D4F8B40205D0C16AF3
:1026800068468847014646703EE0816AF8E7C0B276
:1026900006282CD2DFE800F0030A1014181CD4F826
:1026A000B002426805E0694690471CE0D4F8B002E9
:1026B0008268E2B1207CF6E7D4F8B002C268F8E79D
:1026C000D4F8B0020269F4E7D4F8B0024269F0E746
:1026D000D4F8B0028269ECE7207C40B9D4F8B402A7
:1026E000416B6846884701460EE0207C20B12946B0
:1026F0002046FFF7F8FEF8BDD4F8B402016B684637
:102700008847014607204870BDF8000048B1EA88B4
:1027100052B1824200D90246ADF800202046FFF7B0
:1027200007FFE8880028E6D12046FFF70EFFF8BD36
:1027300070B5002300281ED00446002502E06D1C61
:10274000EDB2641C2678002EF9D1022404EB450476
:1027500014801278CA545B1C0322CA5400245B1CE8
:1027600006E0CA545B1CDAB28C54521CD3B2401C33
:102770000278002AF5D170BD01004FF0000004D0AE
:10278000012901D0022901D00220704701207047A1
:1027900010B580B1D0F8B43213B10023C0F8B43210
:1027A00009B1C0F8B012012180F89C12027000F04B
:1027B000BFF8002010BD022010BD10B5D0F8C00237
:1027C000FEF772F8BDE81040FFF7D6BF10B5D0F89D
:1027D000C002FEF743F8BDE81040FFF7CDBF2DE97A
:1027E000F0411746044651B1D4F8B40242691AB117
:1027F00094F89C02032851D00220BDE8F081D4F85F
:102800009432002504F11400022B03D0042B3AD09B
:10281000C3B33CE0D0E903639E4207D9F11AC1601B
:102820008AB239462046FFF756FE12E08068B0FBB8
:10283000F3F103FB110199B9984211D3D4F898121E
:1028400088420DD2002211462046FFF744FEC4F80C
:10285000985200231A461946204600F0C5F816E0A3
:10286000D4F8B402C16829B194F89C02032801D1BC
:10287000204688478021204600F036F92046FFF7A1
:102880004CFE04E0FFE78021204600F02DF994F88B
:10289000A002012804D184F8A05201E0204690470C
:1028A0000020AAE770B51546044649B1D4F8B40231
:1028B00082691AB194F89C02032830D0022070BDBE
:1028C000D4F8941204F5AA70032902D005291ED069
:1028D00027E0D0E903218A420BD9531AC360084686
:1028E000834200D303469AB229462046FFF7EBFD08
:1028F00017E0D4F8B402016929B194F89C020328C6
:1029000001D1204688472046FFF71FFE09E000203E
:102910000146C4F89402204600F0E6F801E02046A3
:102920009047002070BDD0F8C002FEF7F6B9000055
:1029300010B504461C481D49C0F8E842C4F8C0025E
:102940000160082141600221816000218161C16133
:102950000162FEF731FB08B1FDF783FD0022D4F8D8
:10296000C0021823114604F53074FDF745FF5823C3
:10297000002280212068FDF73FFFC0230022812133
:102980002068FDF739FF4FF4887300220121206889
:10299000FDF732FF4FF48073002282212068FDF79B
:1029A0002BFF002010BD0000CC0B0020005C00407D
:1029B0000A0601F07F01D0F8C00201EB810100EBB3
:1029C000C10002D590F82A00704790F86A0170475C
:1029D00010B51C461346D0F8C0022246FEF7A6F9F1
:1029E000BDE81040FFF7C8BE10B5D0F8C002FEF732
:1029F000CDF9BDE81040FFF7BFBE70B50022044618
:102A000040231146FFF7E4FF40260125C4F8646126
:102A10003346002280212046C4F85851FFF7D8FFE2
:102A20006662A56184F89C520020C4F8940260603C
:102A3000C4F8A402D4F8B80228B1D4F8B402002132
:102A4000426820469047002070BD90F89C120429EF
:102A500003D190F89D1280F89C120020704710B5A9
:102A600090F89C12032904D1D0F8B412C96901B1BD
:102A70008847002010BD01740020704710B5D0F8C1
:102A8000C002FEF740FBBDE81040FFF775BE70B511
:102A9000044600F52A70054600F04AF80120C4F803
:102AA0009402B4F8AE02C4F8980294F8A80210F0A8
:102AB0001F010AD001290DD0022910D000F0800199
:102AC000204600F011F8002070BD2946204600F095
:102AD0009EF8F8E72946204600F0CAF9F3E72946B0
:102AE000204600F01DF9EEE710B5D0F8C002FEF761
:102AF00066F9BDE81040FFF73FBE10B5D0F8C00240
:102B0000FEF71CFBBDE81040FFF736BE90F89C12A4
:102B100080F89D12042180F89C120020704710B5A7
:102B2000D0F8C002FEF784F9BDE81040FFF724BEDC
:102B30000A7802704A7842708A78CB7802EB0322D6
:102B400042800A794B7902EB032282808A79C97923
:102B500002EB0121C18070470246002011B1C2F88A
:102B6000B41270470220704710B5D0F8B422022486
:102B70001AB11268904700B90024204610BD000029
:102B800070B50E461E4D897804462970012931D84A
:102B900094F89C0202280BD003280FD0314620461F
:102BA000FFF7A1FC29782046BDE87040FFF784BC00
:102BB000D9B10320616084F89C0209E071B16068BA
:102BC000884212D0C1B22046FFF776FC29786160B6
:102BD0002046FFF7C9FF02280CD006E0022084F847
:102BE0009C0220466160FFF767FC2046BDE870400C
:102BF000FFF7ABBC31462046BDE87040FFF773BC21
:102C00008400002010B5FFF778FF002010BD2DE9EB
:102C1000F0410A78002612F0600208D0202A01D084
:102C2000402A70D1D0F8B422926890476DE04B787A
:102C3000002201250A2B66D2DFE803F0405D6557CC
:102C4000650805652C29FFF7FFFC5EE004468888CF
:102C5000D8B9C888C8B94888802816D200F07F073C
:102C600094F89C02032810D084F89E7239462046BE
:102C7000FFF704FF2046FFF768FC1FB1022084F82D
:102C80009C0242E084F89C523FE020463BE0FFF784
:102C900077FF3AE0CB88012B35D190F89C32012B9D
:102CA00004D0022B02D0032B2DD104E0826001223C
:102CB00000F1080116E00122011D13E090F89C22AA
:102CC000012A03D0022A01D0032A1CD1CA88022A71
:102CD00019D1C560D0F8A41209B10321C160022244
:102CE00000F10C01FFF724FC0FE0498801290CD109
:102CF000C0F8A45211E090F89C32012B08D0022BAE
:102D000006D0032B04D0FFF7EEFB3046BDE8F08180
:102D100049880129F9D1C0F8A422FFF716FCF4E78D
:102D20002DE9F0410A46044610780027097910F091
:102D300060030AD0202B01D0402B50D1D4F8B4022C
:102D400011468368204698478FE0C0F34110012860
:102D500006D05078D0B301282AD003283FD107E00D
:102D6000D4F8B402114683682046BDE8F041184704
:102D700094F89C02022802D0032872D10AE071B3B1
:102D800080296ED02046FFF7AFFE80212046FFF756
:102D9000ABFE6AE0508838B931B1802904D0D088C0
:102DA00010B92046FFF7A0FE2046FFF7CEFB5CE0FF
:102DB00094F89C020228E2D0032852D1508898BB94
:102DC0004806F1D02046FFF7F8FCEDE7FFE794F85E
:102DD0009C020026022803D0032842D112E040E0E2
:102DE00009B180293DD1080601F07F0000EB800089
:102DF00004EB800101D5143101E001F5AA71022232
:102E00000E602AE0080601F00F0000EB800004EBE2
:102E100080000AD5806920B301F07F0000EB8000BC
:102E200004EB800514350BE01FE0D0F85801C0B169
:102E300001F07F0000EB800004EB800505F5AA752A
:102E400041B1802906D02046FFF7B2FD10B1012024
:102E5000286000E02E60022229462046FFF768FB2A
:102E600003E011462046FFF73EFB3846BDE8F081FF
:102E700070B5054608780C4610F0600003D0202895
:102E800001D0402816D195F89C02012803D00228D1
:102E900001D003280ED1207901280BD8D5F8B4022F
:102EA000826828469047E188014306D12846FFF70B
:102EB0004CFB02E02846FFF716FB002070BD704770
:102EC00000487047AC0900202DE9F0470C78002637
:102ED00030F8243048F68F121340CA78002A7DD08B
:102EE000012A7CD0022A02D0032A7FD0012648F290
:102EF0008002134320F824300D7830F8254048F63E
:102F00008F731C402C43144320F825400D7B48F25E
:102F1000C00C48F6BF744CF280074BF68F79EDB3C6
:102F200091F80080C24630F8285048F280181D40C1
:102F300045EA080520F82A50B0F8505091F8008072
:102F4000054405EB0815B1F8088028F00108A5F83C
:102F50000084B0F8505091F80080054405EB081546
:102F6000B1F80A8028F00108A5F808844D78002DF2
:102F70000D7830F825804FEA48487DD0B8F1000F31
:102F800007DA30F8258008EA030848EA070820F83D
:102F900025800F7830F827506D0600E02CE006D52C
:102FA00030F827501D4045EA0C0520F82750CB7813
:102FB0000D78012B30F8253003EA040301D083F0AB
:102FC0002003134320F825300B7830F8231001EA52
:102FD0000901114320F82310304602E003E008E025
:102FE00004E0BDE8F08743F4007380E743F4C06376
:102FF0007DE743F480637AE74D782DB3B0F8505005
:103000000F78054405EB0715CF8827F00107A5F8D1
:1030100000740F7830F827506D0606D530F8275029
:103020001D4045EA0C0520F82750CB78012B06D02F
:103030000B7830F82310214081F02001C9E70B788C
:1030400030F823102140C4E7B0F850400D78044414
:1030500004EB0514CD8825F00105A4F80854B0F858
:1030600050400D78044404EB05140D6904F20C443F
:1030700075B13E2D14D800E030E04FEA550CED0755
:1030800001D00CF1010C4FF6FF7505EA8C2511E01B
:10309000258825F4F8452580258845F4004509E074
:1030A0004FEA551CED0601D1ACF1010C4FF400457F
:1030B00045EA8C2525800D7830F82540640405D537
:1030C00030F825401C403C4320F825400B7830F870
:1030D000231001EA090181F440517AE7B8F1000FA9
:1030E00007DA30F8258008EA030848EA070820F8DC
:1030F00025800F7830F827506D0606D530F8275018
:103100001D4045EA0C0520F827500D7830F8253091
:1031100003EA090383F44053134320F825308EE774
:10312000002070472DE9F04391F80C804F780A7821
:1031300048F6BF7C4BF68F7948F2800348F2C00511
:103140004CF2800648F68F74B8F1000F28D0002F9B
:1031500030F822704FEA474748D0002F05DA30F8A0
:1031600022702740374320F822700A7830F8227006
:103170007F0605D530F8227027402F4320F82270B3
:103180000D7830F825202240324320F825200C7895
:1031900030F8242002EA0C021A4320F824201AE016
:1031A0007FB130F82260760605D530F822602640DF
:1031B0002E4320F822600A7830F8221001EA0C0130
:1031C0000EE030F822506D0405D530F8225025402D
:1031D000354320F822500A7830F8221001EA09011C
:1031E000194320F822100020BDE8F083002F05DAF3
:1031F00030F822702740374320F822700A7830F8E0
:103200002260760605D530F8226026402E4320F84D
:1032100022600E7830F8262022402A4320F826200B
:103220000C7830F8242002EA09021A4320F82420FE
:10323000C1E70020704700207047012120F8401F9F
:1032400000210180818001820846704730F8401FCC
:1032500021F43F410180002070470020704730B5C5
:103260000A7BB2BB4A7848F68F7548F28004C2B137
:103270000B7830F82320520607D530F823202A4057
:1032800048F2C0052A4320F82320CA78012A20D01A
:103290000A7830F8221048F6BF73194081F02001F7
:1032A00014E00A7830F822305B0407D530F8223079
:1032B0002B404CF280052B4320F822300A7830F85E
:1032C00022104BF68F73194081F44051214320F8AE
:1032D0002210002030BD10B54A780978002A48F243
:1032E000800330F8212005D048F6BF74224082F0D8
:1032F000100204E04BF68F74224082F480521A438D
:1033000020F82120002010BD2DE9F0470E464B7813
:10331000097B04464FF0000948F68F7248F2800A94
:103320004FF6FF774FF40048012B09D000296ED0EB
:10333000F07802286CD001286BD00120BDE8F0871E
:10334000B5693069854200D90546C9B1F17848F2BE
:103350008013022923D0317834F82100104018431B
:1033600024F82100306A401B3062307834F8201095
:10337000490671787ED500297DD001297CD03FE1B6
:10338000ABB2F2882046716900F0F6FAB4F850004A
:103390003178204400EB0110A0F80454EAE0316ACF
:1033A00081426AD9317834F821001040184324F85A
:1033B0002100306A401B3062307834F82010490612
:1033C00071786CD511B1012924D02AE0B4F85010DD
:1033D000214401EB001000F20C404DB13E2D0FD8FE
:1033E0006908EA0700D0491C07EA8121018018E03A
:1033F000018821F4F8410180018841F40041F5E79A
:103400006909EA0600D1491E48EA8121EEE79CE1FC
:10341000BCE126E2B4F85020111901EB0010A0F82D
:103420000C547289ABB22046716900F0A5FA70693C
:10343000284470613169306A884202D9401B306289
:1034400002E00546C6F82090707800287CD1B4F8D8
:1034500050003178204400EB011000F204406DB1BF
:103460003E2D13D86908EA0700D0491C07EA8121DC
:10347000018012E001E19BE0BBE084E0018821F4DF
:10348000F8410180018841F40041F1E76909EA0649
:1034900000D1491E48EA8121EAE7328965E011B18D
:1034A000012921D027E0B4F85010214401EB00108D
:1034B00000F204404DB13E2D0FD86908EA0700D054
:1034C000491C07EA8121018015E0018821F4F841B7
:1034D0000180018841F40041F5E76909EA0600D15D
:1034E000491E48EA8121EEE7B4F85010214401EB6F
:1034F0000010A0F804543289ABB22046716900F084
:103500003BFA7069284470613169306A884202D997
:10351000401B306202E00546C6F820907078002813
:103520007ED1B4F850003178204400EB011000F255
:103530000C4055B13E2D10D86908EA0700D0491C4F
:1035400007EA812101800FE072E0018821F4F8414F
:103550000180018841F40041F4E76909EA0600D1DD
:10356000491E48EA8121EDE77289ABB220467169B4
:1035700000F002FA317834F8210048F6BF721040AA
:1035800080F03000C0E1327834F8220048F68F63D2
:10359000184040EA0A0024F82200B4F850003278BB
:1035A000204400EB02108BB2A0F804343289DDE72E
:1035B000B4F85010214401EB001000F20C404DB162
:1035C0003E2D0FD86908EA0700D0491C07EA81217F
:1035D000018015E0018821F4F8410180018841F45F
:1035E0000041F5E76909EA0600D1491E48EA812150
:1035F000EEE7B4F85020111901EB0010A0F80C54BC
:103600007289ABB22046716900F0B6F9706928443E
:1036100070613169306A884203D9401B306203E02F
:103620006EE00546C6F82090002DA3D0707858B102
:1036300001287FF41EAFB4F850003178204400EB2D
:103640000110A0F8045428E7B4F850003178204461
:1036500000EB011101F204413E2D06D86808EA078B
:1036600000D0401C07EA802005E06809EA0600D186
:10367000401E48EA802008800FE711B1012921D0BF
:1036800027E0B4F85010214401EB001000F2044090
:103690004DB13E2D0FD86908EA0700D0491C07EA52
:1036A0008121018015E0018821F4F8410180018821
:1036B00041F40041F5E76909EA0600D1491E48EAEC
:1036C0008121EEE7B4F85010214401EB0010A0F87E
:1036D00004543289ABB22046716900F04DF970692B
:1036E000284470613169306A884202D9401B3062D7
:1036F00002E00546C6F82090002D96D0707858B1AB
:1037000001287FF420AFB4F850100819317800EB8D
:103710000110A0F80C5427E7B4F850003178204489
:1037200000EB011101F20C413E2D06D86808EA07B2
:1037300000D0401C07EA802005E06809EA0600D1B5
:10374000401E48EA802008800EE7B1693069814256
:1037500002D9091AB161B5E00846C6F81890B1E07F
:10376000088820F4F8400880088840F400400BE006
:103770003E2875D84208C00700D0521C07EA8220B4
:1037800002E000BF48EA82200880B5E093B9B4F8AF
:1037900050003178204400EB0110316900F2044000
:1037A00069B13E2913D84B08C90700D05B1C07EA52
:1037B00083210180707888B1012832D03AE00188F5
:1037C00021F4F8410180018841F40041F1E74B09FF
:1037D000C90600D15B1E48EA8321EAE7B4F850002D
:1037E0003178204400EB0110316900F20C4049B1FE
:1037F0003E290FD84B08C90700D05B1C07EA83217C
:10380000018017E0018821F4F8410180018841F42A
:103810000041F5E74B09C90600D15B1E48EA832148
:10382000EEE7B4F850100819317800EB0110318A36
:10383000A0F80C14F069A8B3317834F821004304DF
:1038400001D5430603D444F24003184254D134F85E
:103850002100104048F2C002104324F821004BE040
:103860003CE0B1693069814202D9091AB16102E0D4
:103870000846C6F818908BB9B4F850103278214435
:1038800001EB021101F2044168B13E2813D842084D
:10389000C30700D0521C07EA82220A80717889B1DE
:1038A000012921D028E00A8822F4F8420A800A88F7
:1038B00042F40042F1E74209C30600D1521E48EA31
:1038C0008222EAE7B4F850103278214401EB021169
:1038D00001F20C4100287FF44BAF41E74209C006DA
:1038E0007FF450AF521E4DE7B4F8502011193278D2
:1038F00001EB0211A1F80C04317834F821004BF6E9
:103900008F72104080F4405040EA0A0024F82100F1
:10391000002013E50021A0F844104FF43F41A0F827
:1039200040100020704700000148FDF79BBA0000DE
:10393000CC0B0020B0F844007047000010B500EB3D
:1039400042005C0800F5806009D000BF30F8042B0D
:1039500001F8012B120A01F8012B641EF6D1DA07D7
:1039600001D00088087010BD0020704711B9802177
:10397000A0F84C100020704710B55B1C00EB420013
:103980005B0800F5806009D011F8012B11F8014B9C
:1039900042EA042220F8042B5B1EF5D110BDFEE79D
:1039A0000907090E002804DB00F1E02080F800146C
:1039B000704700F00F0000F1E02080F8141D704700
:1039C000FCF770FEFEF722FBFEF728F918481749AE
:1039D0004FF4165500240160C0E901540C26C46060
:1039E000C0E904468461C461FEF703F808B172B609
:1039F000FEE70F480F4944300160C0E90154C4603C
:103A0000C0E904468461C461FDF7F3FF08B172B6F2
:103A1000FEE7FEF743F900F03DF8074A074908487A
:103A200000F010F80A2000F03DF8FEE700440040E6
:103A300060060020004800402D040008F90300083B
:103A4000F51B0008F0B516460F46054672B60F483E
:103A5000A0F10804606008306461E060002000F0BC
:103A60003BF8284604F11805C5F88801012000F04C
:103A700033F80220C5F8187300F02EF80448C5F892
:103A8000A864446062B60120F0BD0000A0010020DF
:103A90000000002072B602494FF47A500860704767
:103AA000000000204FF0E02100220A618A61084AEC
:103AB000136823F07F4343F060431360054A1268A4
:103AC0005043401E486107200861FCF71EBB000000
:103AD00020ED00E00000002000EBC00101EB00122F
:103AE0000649064B01EB0211183B01F5A87243F899
:103AF00030204FF08070C1F88C017047B001002079
:103B0000000000000000000001020304060708098D
:103B100000000000010203044772656574696E6766
:103B2000732066726F6D205541525420322C2074E0
:103B3000686973206973207468652064656D6F73AC
:103B400074726174696F6E2052544F5320617070AB
:103B50006C69636174696F6E0A0D00004772656578
:103B600074696E67732066726F6D205541525420E0
:103B7000332C20746869732069732074686520642D
:103B8000656D6F7374726174696F6E2052544F5318
:103B9000206170706C69636174696F6E0A0D00005A
:103BA000C03B0008000000209801000068010008E8
:103BB000843C000898010020981D0000C401000802
:103BC00001141381251B08B1041ABD041AE504135E
:103BD00011261B0861081A8D041704030904120139
:103BE0001402020216408304405726020102030118
:103BF000031A1A0313BD031B08B9041AB5041AE10A
:103C000004192F1182105324F4130A0632022A4099
:103C10001C1C090243571125C03209041B01020B69
:103C200013052416100105240110090104240202C1
:103C3000052406170107058203081C1009048D32AC
:103C40000A1D07050102432C070581070938442A8C
:103C500040072A8107112B0907440A3B0444132516
:103C60002314088D2214080D2442081AD10C1A19A5
:103C7000041A5F04C11A0D281A01041A19041AF54E
:043C80001C00000024
:040000050800012DC1
:00000001FF
